:020000040800F2
:1000000098970020DD010008F9120008FB12000893
:10001000FD120008FF120008011300080000000094
:100020000000000000000000000000004501000882
:1000300003130008000000008901000805130008F0
:10004000F7010008F7010008F7010008F7010008B0
:10005000F7010008F7010008F7010008F7010008A0
:10006000F7010008F7010008F7010008F701000890
:10007000F7010008F7010008F7010008F701000880
:10008000F7010008F7010008F7010008F701000870
:10009000F7010008F7010008F7010008F701000860
:1000A000F7010008F7010008F7010008F701000850
:1000B000F7010008F7010008F7010008F701000840
:1000C000F7010008F7010008F7010008F701000830
:1000D000F701000819130008F7010008F7010008EC
:1000E000F7010008F7010008F7010008F701000810
:1000F000F7010008F7010008F7010008F701000800
:10010000F7010008F7010008F7010008F7010008EF
:10011000F7010008F7010008F7010008F7010008DF
:10012000F7010008F7010008F7010008F7010008CF
:10013000DFF80CD003F0D2F800480047191200088D
:1001400098970020224B19680868B0E8F00F80F3F8
:100150000988BFF36F8F4FF0000080F311884EF0D5
:100160000D0E70470000000006480068006880F32C
:10017000088862B661B6BFF34F8FBFF36F8F00DFA1
:1001800000BF00BF08ED00E0EFF30980BFF36F8F01
:100190000F4B1A6820E9F00F106008B54FF05000BF
:1001A00080F31188BFF34F8FBFF36F8F01F052FFC1
:1001B0004FF0000080F31188BDE808401968086816
:1001C000B0E8F00F80F30988BFF36F8F704700BF6E
:1001D00038000020EFF30580704700000648804794
:1001E00006480047FEE7FEE7FEE7FEE7FEE7FEE71C
:1001F000FEE7FEE7FEE7FEE7A9020008310100087E
:100200000CB50022019200925248016841F48031FD
:1002100001604FF4A063016801F40031009101997D
:10022000491C0191009911B901999942F3D10168D2
:10023000890302D50121009100E000920099012973
:1002400030D145490A6842F010020A600A6822F07B
:1002500003020A600A6842F002020A6041684160D3
:1002600041684160416841F480614160416821F426
:100270007C114160416841F4E8114160016841F03E
:100280008071016001688901FCD5416821F003019A
:100290004160416841F0020141604168C1F3810160
:1002A0000229FAD10CBDABE710B52A48016841F02C
:1002B000010101604168294A114041600168284AF2
:1002C00011400160016821F480210160416821F43E
:1002D000FE0141604FF41F018160FFF7E4FF2149F7
:1002E0004FF00060086010BD10B51A4A506800F069
:1002F0000C011D4B1D4800290ED004290ED00829E1
:100300000ED003605168194AC1F30311121D515CEC
:100310000268CA40026010BD0360F3E70360F1E7C2
:10032000516801F47011536803F48033022404EB24
:10033000914133B153689B0307D50D4B594301607D
:10034000E0E70B4B59430160DCE7074B5943016081
:10035000D8E7000000100240002002400000FFF833
:10036000FFFFF6FE08ED00E000127A00000000201A
:1003700000093D002A4908432A490860704770B5C2
:100380000F23C27801260178002A1ED0254A126860
:1003900002F4E062C2F5E062120AC2F10404D34042
:1003A0004578A54082781A402A43120101F1E021E4
:1003B00081F80024007800F01F018E404009800081
:1003C00000F1E020C0F8006170BD01F01F00864020
:1003D0004809800000F1E020C0F8806170BD124A39
:1003E000114001430F48001F016070470D4A121D64
:1003F000002903D0116801431160704711688143DF
:10040000116070474FF0E021042804D0086920F003
:10041000040008617047086940F0040008617047F3
:100420000000FA050CED00E080FFFF1F10B5DB496E
:1004300088420AD144150121204600F040FC2046A4
:10044000BDE81040002100F03ABCD54988420AD1ED
:1004500004150121204600F032FC2046BDE8104082
:10046000002100F02CBCCF4988420AD10121CC03E5
:10047000204600F024FC2046BDE81040002100F09A
:100480001EBC10BD10B54268C74B1A400C790B68F2
:1004900042EA0422134343608268C44B1A40D1E904
:1004A000024323434C7942EA440213438360C26A05
:1004B00022F47002097C491EC9B242EA0151C162AC
:1004C00010BD00210160017141718160C160012195
:1004D00001747047002904D0816841F001018160F6
:1004E0007047816821F0010181607047002904D0C4
:1004F000816841F4807181607047816821F4807166
:1005000081607047C9B2002A03D042680A43426042
:10051000704742688A4342607047816841F0080131
:1005200081607047014600208968090700D50120D5
:100530007047816841F004018160704701460020E6
:100540008968490700D501207047002904D08168D7
:1005500041F4A00181607047816821F4A0018160AD
:100560007047014600208968490200D50120704784
:10057000426822F46042491E42EA413141607047BC
:10058000002904D0416841F400614160704741682E
:1005900021F400614160704770B5072609290AD926
:1005A000C568A1F10A0404EB4404A640B543A34086
:1005B0001D43C56007E0056901EB4104A640B54352
:1005C000A3401D4305611F23072A09D2446B521E15
:1005D00002EB820293409C4391400C43446370BD04
:1005E0000D2A09D2046BD21F02EB820293409C4376
:1005F00091400C43046370BDC46A0D3A02EB820261
:1006000093409C4391400C43C46270BD002904D0C8
:10061000816841F4801181607047816821F4801104
:1006200081607047C06C80B270475C484C30006895
:100630007047002904D0416841F4806141607047EF
:10064000416821F4806141607047002904D041680D
:1006500041F4805141607047416821F4805141600C
:100660007047826822F4E0420A43826070470029A2
:1006700004D0816841F4004181607047816821F4B1
:10068000004181607047002904D0816841F4021163
:1006900081607047816821F40211816070470146D2
:1006A00000208968890200D50120704770B50726AF
:1006B00009290AD9C568A1F10A0404EB4404A6403B
:1006C000B543A3401D43C56007E0056901EB410444
:1006D000A640B543A3401D430561836BC3F301549A
:1006E000121B921C02EB82021F249440A3439140F0
:1006F0000B43836370BD826B22F44012491E42EAB1
:1007000001518163704708B500900098084400903B
:100710000098026008BD08B5009000980844283091
:1007200000900098006880B208BD4268204B1A40D3
:100730000A4342607047416282627047426822F019
:100740001F020A434260704714490831002804D050
:10075000086840F4000008607047086820F4000052
:10076000086070470246002012680A4200D001204B
:100770007047C9430160704710B5024600200B0A5C
:100780005468C9B20C401168194202D0002C00D044
:10079000012010BD090AC9430160704700240140CF
:1007A00000280140003C0140FFFEF0FFFDF7F1FF93
:1007B000FFFD3FFF10B59C49884209D1012104206B
:1007C00000F07DFA0021BDE81040042000F077BA67
:1007D0009649884209D10121082000F070FA0021D1
:1007E000BDE81040082000F06ABA9149884209D15A
:1007F0000121102000F063FA0021BDE81040102014
:1008000000F05DBA8B49884209D10121202000F017
:1008100056FA0021BDE81040202000F050BA864969
:10082000884209D10121402000F049FA0021BDE8A9
:100830001040402000F043BA8049884209D101218C
:10084000802000F03CFA0021BDE81040802000F03C
:1008500036BA7B4988420AD184150121204600F02E
:100860002EFA2046BDE81040002100F028BA10BD45
:1008700010B50121084600F022FA0021BDE8104021
:10088000012000F01CBA2DE9F0410022CC7804F0E0
:100890000F03E40601D58C7823430C784FF00F0743
:1008A00014F0FF0F4FF0010C1CD005680CFA02F495
:1008B0000E882640A64211D1960007FA06F825EACE
:1008C000080503FA06F848EA0505CE78282E02D076
:1008D000482E02D002E0446100E00461521C082A64
:1008E000E4D305600A88FF2A1ED94568002202F178
:1008F00008060CFA06F40E882640A64210D196008F
:1009000007FA06F825EA080503FA06F848EA050595
:10091000CE78282E00D14461CE78482E00D10461D3
:10092000521C082AE3D34560BDE8F0814FF6FF7101
:100930000180022181700421C170704702460020AD
:1009400092680A4200D001207047806880B27047E8
:1009500002460020D2680A4200D001207047C068D9
:1009600080B270470161704741617047002A01D031
:100970000161704741617047C160704741F4803246
:1009800082618161826181698069704710B52D4BF8
:100990001A684FF68074224042EA0010084318603B
:1009A00010BD2949C8617047F0B5264C002801DA0E
:1009B000E36900E06368C0F30346420D120185B2AB
:1009C000C0F301579540032F07D0C2020CD5032274
:1009D000B240934343F0706209E023F070626368B1
:1009E00023F07063636002E0AB4343F0706201B1D7
:1009F0002A43002801DAE261F0BD6260F0BD10B563
:100A00008A07120F0F23934021F003040D4921445C
:100A10008C689C438C608B68904003438B6010BD56
:100A20000949DC310860704700080140000C0140B2
:100A3000001001400014014000180140001C01405A
:100A4000002001400000014000002042B44801683D
:100A500041F0010101604168B24A11404160016802
:100A6000B14A11400160016821F4802101604168B0
:100A700021F4FE0141604FF41F0181607047A849D5
:100A80000A6822F480320A600A6822F480220A602E
:100A9000B0F5803F07D0B0F5802F03D1086840F44F
:100AA000A02008607047086840F4803008607047F4
:100AB0000346002059099A4A01290AD002290AD07E
:100AC000516A03F01F02012393400B4200D0012022
:100AD00070471168F5E7116AF3E718B50020009038
:100AE0004FF4A0643120FFF7E3FF0099491C009107
:100AF0000099A14201D00028F4D03120FFF7D8FF9F
:100B000008B1012018BD002018BD854A116821F0E8
:100B1000F80141EAC00010607047844908607047DE
:100B20007F4B5A6822F47C12084310435860704788
:100B30007E49086670477A4A516821F003010143F3
:100B4000516070477648406800F00C007047744A66
:100B5000516821F0F001014351607047704A5168BB
:100B600021F4E0610143516070476D4A516821F4FE
:100B7000605141EAC00050607047694A002903D0C3
:100B8000517A014351727047517A814351727047D3
:100B90006649D83108607047614A516821F4404184
:100BA0000143516070475E49002220310A7001F80C
:100BB0002029012805D0042802D1052081F8200031
:100BC0007047012081F8200070475949086070473C
:100BD00053490A6A02430A6270475549443908601A
:100BE000704710B54E4A516801F00C01514B002975
:100BF00027D0042927D0082927D00360516801F0A5
:100C0000F00109094C4B5C5C0168E14041605468AB
:100C100004F4E064240A1C5D21FA04F4846054683E
:100C200004F46054E40A1B5DD940C160526802F4C8
:100C30004042920B404B1B1F9A5CB1FBF2F10161E9
:100C400010BD0360DAE70360D8E7516801F4701162
:100C5000536803F48033022404EB914133B15368A9
:100C60009B0307D5354B59430160C7E7334B5943C5
:100C70000160C3E72F4B59430160BFE7284A0029B1
:100C800003D05169014351617047516981435161FA
:100C90007047234A002903D091690143916170474D
:100CA00091698143916170471D4A002903D0D16940
:100CB0000143D1617047D1698143D1617047184ABE
:100CC000002903D0D1680143D1607047D1688143C6
:100CD000D1607047124A002903D0116901431161A4
:100CE00070471169814311617047114940390860AB
:100CF00070470E49C86470470949C8717047084871
:100D0000416A41F080714162704701460020044A07
:100D100092680A4200D001207047014988727047EA
:100D2000001002400000FFF8FFFFF6FE0000424204
:100D30008004424200127A001800002000093D00A1
:100D400010B5E14988420AD101218C032046FFF702
:100D5000B6FF2046BDE810400021FFF7B0BFDB49D9
:100D600088420AD101214C042046FFF7B3FF2046F8
:100D7000BDE810400021FFF7ADBFD54988420AD138
:100D800001218C042046FFF7A5FF2046BDE8104056
:100D90000021FFF79FBFCF4988420AD10121CC042F
:100DA0002046FFF797FF2046BDE810400021FFF7DF
:100DB00091BFC94988420AD101210C052046FFF79D
:100DC00089FF2046BDE810400021FFF783BF10BD1A
:100DD00030B585B004460D46208A4CF6FF710840B8
:100DE000E98801432182A0894EF6F3110840A988C1
:100DF0002A8911436A8902431143A181A08A4FF6CF
:100E0000FF410840A9890143A1826846FFF7E9FE36
:100E1000AD48844201D1039800E00298A1890904F9
:100E200008D500EBC00101EB001029684900B0FBB8
:100E3000F1F007E000EBC00101EB00102968890028
:100E4000B0FBF1F06422B0FBF2F109010B096FF085
:100E500018056B4300EB8300A3891D044FF0320398
:100E600007D503EBC000B0FBF2F000F00700084329
:100E700006E003EB0010B0FBF2F000F00F000843B7
:100E8000208105B030BD4FF41651016000218180F2
:100E9000C18001810C2242818181704710B5038A93
:100EA0004FF2FF0213400A884C8822438C88C9887D
:100EB0000C4322431A43028210BD0021018041806D
:100EC0008180C1807047002904D0818941F400519C
:100ED00081817047818921F400518181704710B56B
:100EE00040F66A13C1F3421301F01F040121A1402F
:100EF000012B07D0022B07D014303AB102680A4305
:100F0000026010BD0C30F8E71030F6E702688A4343
:100F1000026010BD002A03D0828A0A438282704791
:100F2000828A8A4382827047028A22F00F020282FA
:100F3000028A0A4302827047828922F40062828117
:100F400082890A4382817047002904D0818941F057
:100F5000020181817047818921F0020181817047FE
:100F6000028A22F020020282028A0A430282704729
:100F7000002904D0018A41F4804101827047018A2E
:100F800021F4804101827047C1F3080181807047DC
:100F90008088C0F308007047818941F00101818198
:100FA0007047028BD2B20283028B42EA0121018395
:100FB0007047028B02F47F420283028B0A43028352
:100FC0007047002904D0818A41F020018182704756
:100FD000818A21F0200181827047002904D0818A12
:100FE00041F0100181827047818A21F010018182D5
:100FF0007047002904D0818A41F00801818270473E
:10100000818A21F0080181827047002904D08189FA
:1010100041F40041818170478189C1F30E018181D2
:101020007047002904D0818A41F4006181827047B1
:10103000818A21F4006181827047828A22F0040251
:101040008282828A0A4382827047002904D0818A80
:1010500041F0020181827047818A21F00201818280
:1010600070470246002012880A4200D001207047D3
:101070008A05C9430180704770B5002440F66A12A2
:10108000C1F3421301F01F05012606FA05F2012BF8
:101090000CD0022B0DD0838A1340090A8E400088A1
:1010A00030400BB100B10124204670BD838913404C
:1010B000F3E7038A1340F0E740F66A120A0A0121B7
:1010C0009140C9430180704700380140004400400E
:1010D00000480040004C0040005000405B4C4FF086
:1010E000FF352946012001F081FA214658A002F07F
:1010F00017F91421554801F044FEF2E700F053FBC4
:10110000DFF8549101214846FFF71FFADFF848B194
:101110000BF14C0BDBF80000DFF840A1DAF800001F
:1011200000214846FFF711FA4FF066384C4D4D4EFE
:1011300000F039FB01214846FFF707FADBF8000011
:1011400087B2DAF8000084B200214846FFF7FDF9C3
:10115000384601F0C0FF42462B4601F0C4FE002293
:10116000334601F032FF404F42463B4601F0B8FEA5
:10117000012201F099FF02460B463CA002F0D0F894
:10118000204601F0A8FF42462B4601F0ACFE0022AB
:10119000334601F01AFF42463B4601F09EFE012213
:1011A00001F082FF02460B4636A002F0B9F84FF478
:1011B000FA7000F07FFEBBE71CB501F04FFD36482A
:1011C0000221CDE900100A02002334A1374800F0C3
:1011D0007FFC31480321001DCDE90010002380224F
:1011E00033A1364800F074FC2B48001F006800F063
:1011F000B8FCBDE81C4001F04BBD10B54FF4407089
:10120000FFF7B8F800F0CCF800F054F900F0C8F996
:10121000BDE8104000F065BB1CB5FFF7EEFF28A04D
:1012200002F07EF81C480121001FCDE900100023C8
:1012300080222CA12F4800F04BFC012802D04FF057
:10124000FF301CBD01F053F8FEE700009C000020B9
:10125000CAFDBEDD3A257300002401404C28014040
:1012600066660A4000FEAF406666FA3F0D0A5041CE
:1012700031B2C9BCAFB5E7D1B9D6B53D25660D0AC7
:1012800000000000504132B2C9BCAFB5E7D1B9D6B9
:10129000B53D2025660D0A002C000020464F435F17
:1012A0005049445F5461736B00000000FD1000085A
:1012B00055534152545F5461736B0000DD100008B8
:1012C000D5E2CAC7D2BBB8F6464F432D4672656514
:1012D00052544F532DB6E0C8CECEF1CAB5D1E92154
:1012E0000D0A00004170705461736B437265617444
:1012F00065000000B91100087047FEE7FEE7FEE751
:10130000FEE7704710B501F04CF9012803D0BDE8A5
:10131000104001F0D0BC10BD2DE9F8430026009626
:101320005020EFF3118480F31188BFF34F8FBFF388
:101330006F8F174D40F2255841462846FFF79CFE17
:10134000144F58B12846FFF723FE3A78511C3970E4
:101350001149885441462846FFF7AEFEA84640F2A0
:1013600024414046FFF788FE68B13E700B4D694648
:10137000286801F088FAB8F800000548001D0088C8
:10138000286800F03EFF84F31188BDE8F883000070
:1013900000380140340000209C0000203000002074
:1013A00038B501210820FFF774FC2020ADF80000BB
:1013B00010208DF8030003208DF802000F4C6946C1
:1013C0002046FFF760FA0121ADF80010694620467B
:1013D000FFF759FA0221ADF8001069462046FFF7E1
:1013E00052FA20212046FFF7BDFA01212046FFF7DF
:1013F000B9FA02212046FFF7B5FA38BD000C0140CA
:1014000008B525208DF8000007208DF80100002088
:101410008DF8020001208DF803006846FEF7AFFF4B
:1014200008BD10B586B001210420FFF732FC012170
:101430008803FFF72EFC4FF40070ADF8140018205D
:101440008DF8170003208DF81600534C05A920468F
:10145000FFF719FA2115ADF8141004218DF81710B3
:1014600005A92046FFF70FFA4FF4E1300190002064
:10147000ADF80800ADF80A00ADF80C00ADF81000AA
:101480000C20ADF80E00454C012240F225512046BB
:10149000FFF725FD012240F224412046FFF71FFD02
:1014A00001A92046FFF794FC01212046FFF70BFD20
:1014B00006B010BD10B5FFF7A3FFBDE81040B0E7C0
:1014C00010B504462046FFF75FFD80212046FFF758
:1014D000C8FD0028F9D010BD2DE9F04107460D46A2
:1014E0001646002405E0295D3846FFF7E9FF641C35
:1014F000E4B2B442F7D340213846FFF7B2FD0028EA
:10150000F9D0BDE8F08170B506460D46002430469E
:10151000295DFFF7D5FF641C285D0028F7D1402125
:101520003046FFF79EFD0028F9D070BD70B5054626
:10153000080ACCB201462846FFF726FD802128463E
:10154000FFF78FFD0028F9D021462846FFF71CFD44
:1015500080212846FFF785FD0028F9D070BD70B5C1
:1015600004460E4DE1B22846FFF70EFD80212846C5
:10157000FFF777FD0028F9D0204670BD10B5074C65
:1015800020212046FFF76DFD0028F9D02046BDE858
:101590001040FFF7FDBC000000080140003801408A
:1015A00038B501210820FFF774FB4020ADF800009A
:1015B00010208DF8030003248DF802407F4D69460A
:1015C0002846FFF760F98021ADF8001014218DF84E
:1015D00003108DF8024069462846FFF754F938BDDC
:1015E0000020401CC0B20A28FBD3704710B5734CD2
:1015F00080212046FFF7B6F940212046FFF7B2F9D7
:10160000FFF7EEFF80212046FFF7AEF9FFF7E8FF76
:1016100040212046FFF7A8F9BDE81040E0E710B5EB
:10162000664C40212046FFF79FF980212046FFF7B6
:101630009BF9FFF7D5FF2046BDE810404021FFF79A
:1016400091B970B5054600245C4E280604D580216A
:101650003046FFF787F903E080213046FFF784F931
:10166000FFF7BEFF40213046FFF77CF9FFF7B8FFD8
:1016700040213046FFF778F9072C03D1802130460E
:10168000FFF770F96806050EFFF7AAFF641CE4B2C5
:10169000082CDAD370BD70B500240025474E6006D3
:1016A000040E40213046FFF75DF9FFF799FF8021D6
:1016B0003046FFF743F908B1641CE4B240213046DC
:1016C000FFF752F9FFF78CFF6D1CEDB2082DE6D342
:1016D000204670BD70B5394D80212846FFF742F98C
:1016E000FFF77EFF40212846FFF73CF9FFF778FF20
:1016F00080212846FFF722F908B1012400E00024E8
:1017000040212846FFF730F9FFF76AFF204670BDF9
:1017100010B52A4C80212046FFF726F9FFF760FF1D
:1017200040212046FFF71EF9FFF75AFF40212046CF
:10173000FFF71AF9FFF754FF2046BDE8104080215B
:10174000FFF710B910B51D4C80212046FFF70AF9AC
:10175000FFF746FF40212046FFF704F9FFF740FF5F
:1017600040212046FFF700F9BDE8104038E710B5EA
:101770000446FFF73BFF6C20FFF763FFFFF7AAFF6C
:10178000E0B2FFF75EFFFFF7A5FFFFF72FFF6D2029
:10179000FFF757FFFFF79EFFFFF77DFF0446FFF7B8
:1017A0003EFF204610BD10B50C20FFF7E0FF0446B9
:1017B0000D20FFF7DCFF40EA042010BD000C0140C3
:1017C00030B587B001214FF40170FFF762FA4FF492
:1017D0000040FFF7E1F90220ADF8040000248DF885
:1017E000074001A94248FFF74EF8424D2846FEF750
:1017F0001DFE4FF4C02102918DF80C408DF80D4074
:101800004FF460210491059401218DF8181002A96C
:101810002846FEF737FE0122072311462846FEF729
:10182000BBFE01212846FEF755FE2846FEF775FE51
:101830002846FEF777FE0028FAD12846FEF779FE03
:101840002846FEF77BFE0028FAD107B030BD30B540
:1018500087B0012140F20440FFF71BFA4FF400402B
:10186000FFF79AF90420ADF8040000248DF8074032
:1018700001A91F48FFF707F81F4D2846FEF7D6FDC0
:101880004FF4C02102918DF80C408DF80D404FF4BB
:1018900060210491059401218DF8181002A92846B1
:1018A000FEF7F0FD0723012202212846FEF774FE11
:1018B00001212846FEF7AAFE01212846FEF70AFE6E
:1018C0002846FEF72AFE2846FEF72CFE0028FAD10D
:1018D0002846FEF72EFE2846FEF730FE0028FAD1F5
:1018E000B3E710B5FFF76CFFBDE81040AFE70000AD
:1018F00000080140002401400028014000F10801D7
:1019000041604FF0FF328260C160016100210160DF
:10191000704700210161704742684A6093688B609C
:1019200093685960916008610168491C01607047C3
:1019300030B50C68621C02D000F1080202E00269B6
:1019400004E01A4653681D68A542FAD953684B60F3
:1019500099608A60516008610168491C016030BD6E
:101960000169D0E901329A60D0E901235A604A68DE
:10197000824201D182684A60002202610868401EEA
:101980000860704770B50024FB4D04EB840005EB44
:101990008000FFF7B3FF641C202CF6D3F748FFF755
:1019A000ADFFF6481430FFF7A9FFF4482830FFF7E1
:1019B000A5FFF2483C30FFF7A1FFF0485030FFF799
:1019C0009DFFEF48ED4941631431816370BD70B5EF
:1019D000044601F043F9EA4DA868401CA860286855
:1019E00010B1686938B10CE02C60A868012808D1F2
:1019F000FFF7C8FF05E02868E16AC06A884200D89E
:101A00002C60686A401C6862E06A01212A69814092
:101A100011432961D84900EB800001EB8000211DB2
:101A2000FFF77AFF01F034F9686900280CD02868C4
:101A3000E16AC06A884207D2D2494FF080500860FC
:101A4000BFF34F8FBFF36F8F70BD2DE9F047814615
:101A5000DDE908580A9C0E469A46206B521E00EBA0
:101A6000820020F00707780705D040F22B32C6A18C
:101A7000CCA001F055FC00202218315C82F8341013
:101A8000315C11B1401C1028F6D3002684F8436065
:101A9000202D00D31F25E562201DFFF73AFF04F13A
:101AA0001800FFF736FF2461C5F12000A0616462D1
:101AB000666484F8486052464946384601F075F835
:101AC0002060B8F1000F01D0C8F80040BDE8F087F1
:101AD0002DE9FF5F8146DDE90E788A4616469B4672
:101AE000B00000F090FF054628000AD04C2000F01E
:101AF0008AFF04460CB1256304E0284600F0EAFFA3
:101B000000E000248CB10020CDE90240CDE900784E
:101B10005B46324651464846FFF797FF2046FFF79F
:101B200056FF012004B0BDE8F09F4FF0FF30F9E709
:101B30009348416B0968002905D0416BC968C968A1
:101B40004968816270474FF0FF318162704710B57C
:101B50000446206B00F0BEFF2046BDE8104000F0B8
:101B6000B9BF70B5044601F079F8854D04B92C6809
:101B7000201DFFF7F5FE58B9E06A7F4A00EB8001AF
:101B800052F8211021B90121814028698843286138
:101B9000A06A18B104F11800FFF7E2FE686A401C61
:101BA00068622868844208D17448211D3C30FFF7E0
:101BB000B3FE6868401C686007E0A868401EA86023
:101BC0002046FFF7C4FFFFF7B3FF01F061F8686933
:101BD000002812D0286884420FD1286B28B140F227
:101BE000654269A16FA001F09BFB66494FF08050F0
:101BF0000860BFF34F8FBFF36F8F70BD2DE9F041C9
:101C000000265F4F386B002808D0B869401CB861C7
:101C1000F86900B101263046BDE8F081FD686D1C11
:101C2000FD608DB9786B006828B140F6D91256A1D5
:101C30005CA001F075FB786BB96B7963B863386AA7
:101C4000401C3862FFF774FFB86ADFF82C818542C8
:101C50000DD3786B006838B1786BC068C468606871
:101C600085420ED2B86202E04FF0FF30B8623868A9
:101C7000C06A00EB800058F820000128C8D901266E
:101C8000C6E7201DFFF76CFEA06A18B104F118002A
:101C9000FFF766FEE06A01213A698140114339612C
:101CA00000EB800008EB8000211DFFF735FEE06AA5
:101CB0003968C96A8842CCD30126CAE72DE9F041C8
:101CC000002400272E4D286B002805D14FF4FD621B
:101CD0002DA134A001F024FB00F0C0FF286B401EB2
:101CE0002863286BF0BBA868E0B3DFF8908001267A
:101CF00008F128081DE0D8F80C00C46804F11800A9
:101D0000FFF72EFE201DFFF72BFEE06A2A6906FA78
:101D100000F111432961184900EB800001EB8000BC
:101D2000211DFFF7F9FDE06A2968C96A884200D3DE
:101D3000EE61D8F800000028DDD10CB1FFF7F8FE05
:101D4000AC6944B1FFF75AFF00B1EE61641E002C8C
:101D5000F8D10020A861E86920B1012709493807B6
:101D6000086000E003E0BFF34F8FBFF36F8F00F018
:101D70008FFF384650E70000B000002030030020FD
:101D80003800002004ED00E02E2E5C2E2E5C467202
:101D9000656552544F535C7372635C7461736B730B
:101DA0002E6300004572726F723A25732C25640D04
:101DB0000A0000002DE9F04104460F46FE4EF5688A
:101DC0003068001DFFF7CCFD38B9306890F82C1052
:101DD00001208840316981433161601C07D137B1EE
:101DE0003168BDE8F041091DF448FFF795BD2C446A
:101DF00030684460AC4206D23168B06B091DBDE862
:101E0000F041FFF795BD3168706B091DFFF790FD3C
:101E1000B06A844200D2B462FEE6E748016B491C16
:101E2000016370472DE9F04105460E460024002D60
:101E300007D140F27942AFF2B001AFF2980001F061
:101E40006FFA3EB940F27A42AFF2C401AFF2AC0091
:101E500001F066FAD84F386B38B140F27B42AFF2EE
:101E6000D801AFF2C00001F05BFAFFF7D6FFFA68C5
:101E70002B689919934205D98B4208D9914206D90A
:101E8000012404E08B4201D8914200D90124296049
:101E90001CB1881A0021FFF78DFFFFF70FFF002804
:101EA00007D1C7494FF080500860BFF34F8FBFF391
:101EB0006F8FB1E610B504460020002C12D0BE484A
:101EC000006B38B140F2CF42AFF24411AFF22C10A8
:101ED00001F026FAFFF7A1FF00212046FFF76AFF75
:101EE000FFF7ECFE002807D1B5494FF0805008609D
:101EF000BFF34F8FBFF36F8F10BD70B50546002D38
:101F000007D140F2FB42AFF28011AFF2681001F04E
:101F100007FAA94E3068854201D1002070BD00F05B
:101F20009DFE6C6900F0B4FE706B844202D0B06B11
:101F3000844201D1022070BDA048844205D1A86A24
:101F400008B1022070BD032070BD9C481438844243
:101F500002D00CB1012070BD042070BD10B5044644
:101F600000F07CFE0CB994480468E46A00F090FE2E
:101F7000204610BD10B5044600F0B1FE5020EFF32E
:101F8000118180F31188BFF34F8FBFF36F8F0CB9AE
:101F900089480468E06A81F3118810BD2DE9F04199
:101FA00004460D460026202D07D34FF4B062AFF251
:101FB0002821AFF2102001F0B3F9202D00D31F2506
:101FC00000F04CFE7C4F04B93C68D4F82C80A84546
:101FD0003CD0454508D93868844209D03868C06A81
:101FE000A84205D8012603E03868844200D10126C2
:101FF000E562A069002802DBC5F12000A061714DF7
:1020000008EB8801606905EB8101884215D1201D2C
:10201000FFF7A6FC012120B93A6901FA08F08243D2
:102020003A61E06A3A6981401143396100EB80000E
:1020300005EB8000211DFFF76FFC3EB160494FF0BA
:1020400080500860BFF34F8FBFF36F8FBDE8F04142
:1020500000F01EBE70B5584D286B002802D001203C
:10206000E86170BD0020E8612869B0FA80F0C0F135
:102070001F00544E00EB800456F8240038B940F697
:10208000F622AFF2FC21AFF2E42001F049F906EBB1
:10209000840041684968416000F10802914201D121
:1020A000496841604068C068286070BD70B50446EA
:1020B00000F0D4FD404D04B92C68201DFFF750FC02
:1020C00058B9E06A3F4A00EB800152F8211021B96B
:1020D00001218140286988432861A06A18B104F170
:1020E0001800FFF73DFC211D3448FFF715FC00F0F8
:1020F000CFFD686928B100F0B1FDFFF719FD00F0D0
:10210000C7FD2868844213D1686990B1286B38B143
:1021100040F25762AFF29031AFF2783001F000F93F
:1021200027494FF080500860BFF34F8FBFF36F8F88
:1021300070BD2248A9680068884202D1002028604A
:1021400070BDBDE8704085E770B5002504460028E5
:1021500007D140F28162AFF2D031AFF2B83001F076
:10216000DFF816496069884205D1A06A283988429B
:1021700001D000B90125284670BD70B5044600287D
:1021800007D140F2AB62AFF20041AFF2E83001F0AC
:10219000C7F8002C34D0084D2868844230D000F0B5
:1021A0005DFD2046FFF7D0FF30B3201DFFF7D8FBC1
:1021B000E06A0121814007E0380000208003002010
:1021C00004ED00E0B00000202A6911432961F949BB
:1021D00000EB800001EB8000211DFFF79DFBE06A12
:1021E0002968C96A884207D3F3494FF080500860D4
:1021F000BFF34F8FBFF36F8FBDE8704000F048BD55
:1022000070BD2DE9F04100260446002807D140F2B8
:10221000E262AFF28C41AFF2744001F081F800F05D
:102220005EFD5020EFF3118580F31188BFF34F8FCF
:10223000BFF36F8F2046FFF787FF38B1DF4F386B52
:1022400040B104F11801DE48FFF766FB85F3118801
:102250003046E1E4E06A3968C96A884200D3012661
:10226000201DFFF77DFBE06A01213A69814011439F
:102270003961D04900EB800001EB8000211DFFF7A0
:102280004BFBE3E770B5CE4ECC4D14361CE0FFF7A8
:10229000C4FD306820B10024FFF710FDA4B901E0AF
:1022A0000124F9E700F0DAFCF068C468201DFFF7AC
:1022B00057FBA868401EA8606868401E686000F070
:1022C000E7FC2046FFF743FC68680028DFD170BDBB
:1022D000B84E4FF08054B84DFFF7D4FF3068012856
:1022E000FAD92C60BFF34F8FBFF36F8FF4E71CB5A3
:1022F000B24800242C30CDE9004023468022B1A111
:10230000B248FFF7E5FB01280CD0401C1CD140F27D
:102310008472AFF28C51AFF2745002B0BDE810403D
:1023200000F0FEBF502080F31188BFF34F8FBFF342
:102330006F8FA2484FF0FF31816201214161C4607B
:10234000BDE81C4000F04ABC1CBD502080F3118841
:10235000BFF34F8FBFF36F8F98490020486100F0A3
:1023600071BC9648C068704710B500F0B8FC93483F
:10237000C06810BD91488068704710B5002802D031
:1023800004461CB10AE08D480468FAE740F68C0266
:10239000AFF20C61AFF2F45000F0C2FF04F1340070
:1023A00010BD70B504460D46002C07D140F606322C
:1023B000AFF22C61AFF2146000F0B2FF7F48016809
:1023C00020461831FFF7B4FA2846BDE870400121D5
:1023D000F0E42DE9F04105460E461746002D07D1E1
:1023E00040F61732AFF26061AFF2486000F098FF3C
:1023F000724C206B38B940F61B32AFF27461AFF209
:102400005C6000F08DFF216846F000408861216823
:1024100028461831FFF780FA3846BDE8F04101211F
:10242000C8E42DE9F041C068C468002C07D140F62B
:102430006132AFF2AC61AFF2946000F071FF04F171
:1024400018000746FFF78CFA5C4D2A6B01265AB13B
:1024500039465B48FFF760FAE06A2968C96A884232
:1024600014D90120EE6185E4201DFFF779FAE06AB6
:102470002A6906FA00F1114329614E4900EB8000F8
:1024800001EB8000211DFFF747FAE5E7002071E42A
:1024900070B506460C46494D286B002807D140F61A
:1024A0009932AFF21C71AFF2047000F039FF44F0C2
:1024B00000403060F4683CB940F6A132AFF23871A8
:1024C000AFF2207000F02CFF3046FFF749FA201DD4
:1024D000FFF746FAE06A01262A6906FA00F111437D
:1024E0002961344900EB800001EB8000211DFFF7DA
:1024F00013FAE06A2968C96A884202D90120EE61AC
:1025000070BD002070BD10B50446002C07D140F608
:10251000C132AFF28C71AFF2747000F001FF274846
:10252000016A2160C068606010BD70B504460D4648
:10253000002C07D140F6CB32AFF2B471AFF29C70F1
:1025400000F0EEFE3DB940F6CC32AFF2C471AFF20E
:10255000AC7000F0E5FE00F081FB184AD0682968F5
:102560004B1C08D02368126A934206D062688242EC
:1025700003D801240DE000240BE06268801A884231
:1025800006D2081A28602046FFF7BDFF002400E0AD
:10259000012400F07DFB204670BD08490120C86180
:1025A000704706484169002912D0006B90B10020A5
:1025B00070470000B000002004ED00E0380000206B
:1025C0005803002049444C4500000000D122000877
:1025D0000120EDE70220EBE7E249086880690A681C
:1025E0000968D26AC2F120028A61E1E770B5064645
:1025F0000C4600F033FBDB4D2868406C80B92A683C
:10260000012082F848005CB101212046FFF7D2FB8F
:10261000D5494FF080500860BFF34F8FBFF36F8FE5
:1026200000F036FB00F01AFB2868446C002034B13F
:1026300016B12968486402E02A68611E516429685D
:1026400081F8480000F024FB204670BD2DE9F047DA
:1026500081460F461646984600F000FBC14D28689B
:1026600090F84800022817D02C68606C20EA090016
:1026700060642968012081F84800B8F1000F0BD090
:1026800001214046FFF796FBB7494FF080500860A4
:10269000BFF34F8FBFF36F8F00F0FAFA00F0DEFA4E
:1026A00016B12868406C3060286890F8480001280E
:1026B0000DD02868416CB943416401242968002089
:1026C00081F8480000F0E4FA2046BDE8F0870024D5
:1026D000F4E72DE9F04104460D4690461F460126D9
:1026E000002C07D141F2FD02AFF66411AFF64C1099
:1026F00000F016FE00F0B2FA0FB1606C386094F88A
:102700004800022184F84810B8F1050F13D2DFE821
:1027100008F01203070B0D00616C294361640AE0A5
:10272000616C491C616406E0656404E0022801D024
:10273000656400E00026012828D1201DFFF710F96C
:10274000884DE06A01212A69814011432961874946
:1027500000EB800001EB8000211DFFF7DDF8A06A8F
:1027600038B141F23512AFF6E011AFF6C81000F003
:10277000D7FDE06A2968C96A884207D97A494FF0CB
:1027800080500860BFF34F8FBFF36F8F00F080FA67
:1027900030465EE52DE9F0470446DDF820800D4621
:1027A00091469A460127002C07D141F26812AFF6F4
:1027B0002821AFF6102000F0B3FD00F090FA502071
:1027C000EFF3118680F31188BFF34F8FBFF36F8F44
:1027D000BAF1000F02D0606CCAF8000094F848000B
:1027E000022184F84810B9F1050F13D2DFE809F08F
:1027F0001203070B0D00616C294361640AE0616CF0
:10280000491C616406E0656404E0022801D0656447
:1028100000E00027012832D1A06A38B141F2AF129E
:10282000AFF69C21AFF6842000F07AFD4D4D286B69
:102830004FF0010978B104F118014D48FFF76CF829
:10284000E06A2968C96A884219D9B8F1000F14D022
:10285000C8F8009013E0201DFFF782F8E06A2A69AB
:1028600009FA00F11143296100EB80013F4800EBB8
:102870008100211DFFF750F8E2E7C5F81C9086F3B0
:102880001188384621E72DE9F04104468846002C9E
:1028900007D141F2E312AFF61031AFF6F82000F0A5
:1028A0003FFD00F01CFA5020EFF3118780F31188F0
:1028B000BFF34F8FBFF36F8F94F84800022184F865
:1028C0004810616C491C6164012830D1A06A38B19C
:1028D00041F20922AFF65031AFF6383000F020FD5A
:1028E000204D286B012678B104F118012048FFF72C
:1028F00013F8E06A2968C96A884218D9B8F1000F4C
:1029000014D0C8F8006012E0201DFFF729F8E06A33
:102910002A6906FA00F111432961144900EB80008D
:1029200001EB8000211DFEF7F7FFE2E7EE6187F380
:1029300011888EE410B500280BD0044600F08EF903
:1029400094F84800022807D0002400F0A1F920469E
:1029500010BD04480468F1E7002084F84800012411
:10296000F3E700003800002004ED00E0B000002094
:102970005803002030B5744900E011460A688242CD
:10298000FBD34B685C18844203D14068184448600C
:1029900008460D6844682318AB420DD16A4B103BC2
:1029A0001B689A4206D05268224442600A68126844
:1029B000026002E0036000E00260814200D0086033
:1029C00030BD4FF410416148420706D0C01D20F0D1
:1029D00007005E49411AC1F510415B4A10600023AF
:1029E00053600144083921F00701103A11604B602F
:1029F0000B600B1A436001604068906050604FF0BC
:102A00000040D06070472DE9F04105460026FFF7F1
:102A100004FA4D4F103F386808B9FFF7D2FFF86845
:102A200005424AD175B1083568070BD005F007009B
:102A3000C0F108000544680704D0BF2244A14EA09D
:102A400000F06EFC002D38D07868854235D83E49BC
:102A50000846046801E0214604466068A84202D2A4
:102A600020680028F7D13868844226D00E680836DE
:102A7000206808606068401B102811D904EB050825
:102A80005FEA487004D0EC2231A13BA000F048FC82
:102A90006068401BC8F8040065604046FFF76AFFA5
:102AA00061687868401A7860BA68904200D2B8606D
:102AB000F8680143616000202060FFF7FFF87007AD
:102AC00005D04FF4967222A12BA000F029FC3046CD
:102AD000BDE8F08170B500282BD0083804461A4DA7
:102AE0006068103DE968084205D14FF4A07218A152
:102AF00021A000F015FC206828B140F2411214A179
:102B00001DA000F00DFC6068E968084211D0226841
:102B1000002A0ED188436060FFF77FF9606869681A
:102B2000084468602046FFF725FFBDE87040FFF7C6
:102B3000C5B870BD04481038406870470248103866
:102B400080687047704700008400002094030020D4
:102B50002E2E5C2E2E5C4672656552544F535C706F
:102B60006F72745C4D656D4D616E675C6865617018
:102B70005F342E63000000004572726F723A257355
:102B80002C25640D0A00000067484068401C04D0F2
:102B9000F42266A16FA000F0C3FB502080F31188DF
:102BA000BFF34F8FBFF36F8FFEE720384FF0807376
:102BB000C36121F0010181616A49416140F8202926
:102BC000704769484FF47A710068B0FBF1F14FF03B
:102BD000E020491E41610721016170471CB563492E
:102BE00008780190FF200870087800909DF8000098
:102BF0004D4A00F0500010700720906006E0906889
:102C0000401E90609DF80000400000909DF800007C
:102C10000006F4D4107A000200F4E060906001989D
:102C200008705348016841F470010160016841F087
:102C300070410160FFF7C5FF00205060FDF794FA76
:102C400000201CBD38484068B0F57A7F05D04FF4AD
:102C5000B57236A13FA000F063BB7047502080F3EF
:102C60001188BFF34F8FBFF36F8F2F494868401C07
:102C7000486001280BD13E481C38006810F0FF0F57
:102C800005D04FF4BD7229A132A000F049BB7047B6
:102C900010B5254C6068002805D140F2811223A1AF
:102CA0002CA000F03DFB6068401E6060002801D150
:102CB00080F3118810BD10B5502080F31188BFF348
:102CC0004F8FBFF36F8FFEF799FF20B128494FF068
:102CD00080501C390860002080F3118810BD10B5A9
:102CE000FDF778FA104C10280CD300F1E02090F892
:102CF000F0032178884205D24FF42A720BA115A067
:102D000000F00EFB1A4814380068A16800F4E06077
:102D1000884207D9BDE810404FF42E7203A10DA0E0
:102D200000F0FEBA10BD00008C0000202E2E5C2E9C
:102D30002E5C4672656552544F535C706F72745CC2
:102D4000525644535C41524D5F434D335C706F7239
:102D5000742E63004572726F723A25732C25640DD0
:102D60000A000000892B00080000002000E400E0B9
:102D700020ED00E0D2B201E000F8012B491EFBD2A9
:102D800070470022F6E710B513460A460446194676
:102D9000FFF7F0FF204610BD2DE9FE4F804681EA87
:102DA0000300C00F0C46009021F0004123F00045C5
:102DB000B8EB0200A94105D24046214690461C4688
:102DC0000B46024623F00040104347D0270DC7F3BF
:102DD0000A00C3F30A510290401A019040286BDAAE
:102DE000C3F3130040F4801B0098924620B10023E7
:102DF000D2EB030A63EB0B0B01985946C0F140027A
:102E0000504600F0BCF906460D4650465946019A18
:102E100000F0C4F910EB08006141002487EA115268
:102E200084EAE7731A4340D0009A62B3019A012AF8
:102E30004FEA075215DC001B61EB02014FF0004224
:102E400002EA0752CDE90042001C41F580113246EA
:102E50002B4600F0C4F903B0BDE8F08F4046214690
:102E6000F9E7001B61EB0201001C41F5801300181B
:102E70005B412018A2F5001747EB030140EAD5702B
:102E8000B6196D4111E06D084FEA360645EAC07586
:102E90004FEA0752001B61EB0201001C41F5801153
:102EA00049084FEA30000019514132462B4603B021
:102EB000BDE8F04F00F084B90098012240000023E3
:102EC000D0EB020263EBE073009821464FEAE07416
:102ED000B8EB000061EB0401E9E783F000435BE736
:102EE00081F0004158E72DE9FE4F81EA030404F028
:102EF000004421F0004100944FF0000B23F0004308
:102F000050EA01045ED052EA03045BD0C3F30A54D2
:102F1000C1F30A552C44A4F2F3340194A0FB0254EB
:102F2000C1F3130141F48011C3F3130343F480137D
:102F300001FB024400FB034E840A970A44EA8154D1
:102F400047EA8357A4FB076802958D0A05FB0785AE
:102F50004FEA932C04FB0C542705029D4FEA0658B8
:102F600047EA1637B5EB08056EEB070C870E920E95
:102F700047EA811742EA8312A7FB0201B6EB0B0175
:102F800064EB00042B0D43EA0C335E1844EB1C5039
:102F9000DA465146E7FB0201C5F313044FEA0B334F
:102FA00043EA14534FEA0432019C43EA0603A4F1B6
:102FB0000C040294009CCDE900B400F010F903B0B9
:102FC000BDE8F08F00200146F9E72DE9F04D81EAD8
:102FD000030404F0004B21F0004514464FF0000AB2
:102FE00023F0004150EA050220D054EA01021DD02E
:102FF000C5F30A570246C5F31303C1F31300C1F327
:103000000A5640F4801543F48013A7EB0608101B02
:10301000D64608F2FD3873EB050002D308F101082B
:1030200001E092185B41B8F1000F03DA002001467D
:10303000BDE8F08D00204FF48011064684460EE076
:10304000171B73EB050705D3121B63EB0503064340
:103050004CEA010C49084FEA300092185B4150EAF3
:103060000107EDD152EA030012D082EA040083EA9C
:103070000501084305D0101BAB4106D201220023F5
:1030800006E000224FF0004302E06FF0010253100F
:103090001AEB06004CEB085110EB0A0041EB0B0158
:1030A000BDE8F04D00F08CB870B521F0004303434B
:1030B0000CD0C1F30A550024D5EB040564EB0403DE
:1030C000D617AD1AB34102DB0020014670BD2018AF
:1030D00041EB025170BD0EB540F233410291002127
:1030E000CDE900110A460B4600F079F803B000BDA7
:1030F00030B50B46014600202022012409E021FAC8
:1031000002F59D4205D303FA02F5491B04FA02F5C4
:103110002844151EA2F10102F1DC30BD2DE9F05F5B
:103120000546002092469B46884606468146402436
:103130001BE0284641464746224600F0E1F8534648
:103140005A46C01A914110D311461846224600F043
:1031500016F82D1A67EB01084F4622460120002180
:1031600000F00DF817EB00094E41201EA4F10104F8
:10317000DFDC484631462A464346BDE8F09F202A18
:1031800004DB203A00FA02F1002070479140C2F1BE
:10319000200320FA03F3194390407047202A06DBEE
:1031A000CB17203A41FA02F043EAE07306E041FA15
:1031B00002F3D040C2F12002914008431946704703
:1031C00010B5141E73F1000408DA401C41F100012F
:1031D00092185B411A4301D120F0010010BD2DE986
:1031E000F04D92469B4611B1B1FA81F202E0B0FA7D
:1031F00080F220329046FFF7C2FF04460F4640EAB5
:103200000A0041EA0B0153465A46084313D01146BF
:1032100053EA010019D0C8F14002504600F070F89E
:1032200005460E46504659464246FFF7A8FF08435A
:1032300005D0012004E020463946BDE8F08D00208D
:10324000054346EAE0762C4337430A986305E40ACF
:10325000A0EB08000022FD0A44EA47540A3002D5D8
:1032600000200146E9E7010510196941DDE908453B
:1032700000196941BDE8F04DA2E7C1F30A52C1F35C
:10328000130140F2FF3341F480119A4202DA002028
:103290000146704740F233439A42A2F2334202DCC5
:1032A000524200F02DB8FFF76ABF000030B5041E8F
:1032B00071F1000404DB4FF00044404264EB010173
:1032C000141E73F1000405DB1C464FF0004352420C
:1032D00063EB0403994208BF904230BD064C074D92
:1032E00006E0E06840F0010394E8070098471034D6
:1032F000AC42F6D3FCF720FF143C0008343C000835
:10330000202A04DB203A21FA02F00021704721FA3A
:1033100002F3D040C2F120029140084319467047A1
:103320000FB4054B10B503A9044A029800F0DAF86F
:1033300010BC5DF814FB00005F1500089800002029
:1033400002E008C8121F08C1002AFAD1704770476E
:10335000002001E001C1121F002AFBD170470000CC
:103360002DE9FF5F82B00021DDE90430020DDDF8B8
:1033700040B0034318D044F61050A2F2FF3242434B
:103380001514119801281FD0A5EB0B00401C5FEA13
:10339000000A4FF000064E4FDFF83891B046504615
:1033A00015D5CAF1000413E0119801244AA301289D
:1033B00001D16FEA0B010298119AC0E90031C0E90E
:1033C000024206B0BDE8F09FCBF10000DFE7044603
:1033D0000021404A491842EB0450CDE9001012E0A8
:1033E000E00707D032463B4640464946FFF77BFDA3
:1033F0008046894632463B4610461946FFF773FD24
:1034000006460F466410002CEAD1DDE90401DDE92F
:103410000023BAF1000F06DAFFF765FD42464B467E
:10342000FFF761FD05E0FFF7D0FD42464B46FFF791
:10343000CCFD04460E460022284BFFF737FF03D889
:103440004FF0FF30014607E00022254B2046314671
:10345000FFF7A2FCFFF711FF102409E0002C0ADBA4
:103460000A220023FFF75AFE039B30321A55641ECE
:1034700050EA0102F2D1641C039AC4F1110314440E
:10348000119A012A03D0012208430DD10AE0084312
:1034900004D000204FF0110B119072E7A3EB0B0545
:1034A0006D1E0DE05B4504DD4FF0000205F10105E6
:1034B00004E003DA4FF00002A5F10105002AECD088
:1034C00002981199C0E90231C0E9004579E700008E
:1034D000000014400000F03F300000000000F04306
:1034E0000000E03F2DE9FF4F95B09B468946064618
:1034F00000250FE2252877D100242746F84A01212C
:10350000059400E0044316F8013F203B01FA03F064
:103510001042F7D130782A2811D06FF02F0330787D
:10352000A0F13002092A16D8059A44F0020402EBF1
:10353000820203EB42021044761C0590EFE759F833
:10354000042B0592002A03DA504244F400540590FB
:1035500044F00204761C30782E2816D116F8010F9C
:1035600044F004042A280DD06FF02F023078A0F127
:103570003003092B09D807EB870302EB4303C71875
:10358000761CF3E759F8047B761C30786C280FD052
:1035900006DC4C2817D068280DD06A2814D104E026
:1035A000742810D07A280FD10DE044F400140AE0FA
:1035B00044F4801401E044F440147278824202D151
:1035C00004F58014761C761C307866280BD013DC4A
:1035D000582877D009DC002875D04528F6D0462831
:1035E000F4D047281AD19DE118E0632835D064282B
:1035F00079D0652812D195E1702873D008DC67284E
:10360000F1D069286FD06E280DD06F2806D1B5E0B3
:1036100073282CD0752875D0782874D05A461799FD
:1036200090476D1C75E1C4F30250022809D00328AD
:103630000DD0D9F8001004280DD00D6009F104094F
:1036400067E1D9F80010EA17C1E90052F6E7D9F8A6
:1036500000100D80F2E70D70F0E719F8041B8DF8EB
:10366000001000208DF80100EA46012003E059F81F
:1036700004AB4FF0FF3061074FF0000102D40DE0C2
:1036800008F101018846B9420FDA8045F8DB1AF8E3
:1036900008100029F4D108E008F1010188468142B0
:1036A000FADB1AF808100029F6D105985B46A0EB62
:1036B000080721463846179A00F094FA284400EB90
:1036C000080507E04DE029E10DE01AF8010B5A4624
:1036D00017999047B8F10108F7D25B462146384662
:1036E000179A13E142E00A220092C4F302524FF00B
:1036F000000A022A08D059F804CB032A4FEAEC71D9
:103700000AD00DE029E02AE009F1070121F00702C3
:10371000F2E802C1914609E00FFA8CFC4FEAEC7125
:10372000042A03D14FFA8CFC4FEAEC71002907DA26
:103730000A460021DCF1000C61EB02012D2202E0BF
:10374000220504D52B228DF80420012203E0E20794
:1037500001D02022F7E7904659E00A2102E010222A
:103760000DE010214FF0000A00910BE010224FF005
:10377000000A44F004040827009203E008224FF0F6
:10378000000A0092C4F30252022A05D059F804CB71
:103790000021032A08D009E009F1070121F00702FE
:1037A000F2E802C1914605E01FFA8CFC042A01D11F
:1037B0000CF0FF0C4FF00008220728D5702806D027
:1037C000009B83F0100353EA0A0305D00EE0402269
:1037D0008DF80420012208E05CEA010206D03022C4
:1037E0008DF804208DF8050002229046009B83F09E
:1037F000080353EA0A030AD15CEA010201D1620715
:1038000005D530228DF804204FF001087F1E58287E
:1038100004D034A003900EA802900DE036A0F9E782
:1038200053466046009AFFF779FC84460398825C11
:103830000298401E029002705CEA0100F0D10298EA
:1038400006A9081A00F1200A600702D524F4803482
:1038500000E00127574502DDA7EB0A0000E0002049
:1038600000EB0A01009005984144401A0590E003DE
:1038700006D45B462146179A059800F0B3F9054433
:10388000002706E001A85A46C05D179990476D1CB5
:103890007F1C4745F6DBE0030CD55B462146179AB3
:1038A000059800F09FF9054404E030205A46179926
:1038B00090476D1C0099481E00900029F5DC08E037
:1038C000029802995A460078491C0291179990472C
:1038D0006D1CBAF10001AAF1010AF1DC65E10000FA
:1038E00009280100303132333435363738396162D6
:1038F000636465660000000030313233343536379A
:1039000038394142434445460000000000F058F970
:103910000544761C307800287FF4ECAD19B02846B9
:10392000BDE8F08F620700D4062709F1070222F0F4
:10393000070CFCE80223E14603F000485FEA080CAC
:1039400002D00FF2702C0DE05FEA045C02D50FF29A
:10395000682C07E05FEAC47C02D00FF2602C01E023
:10396000AFF2700C4FF0FF3823F00043CDF850C099
:1039700065280CD006DC452809D046281DD04728EC
:103980003DD13DE0662818D067287ED138E000217F
:10399000112F01DB112000E0781CCDE9000106A900
:1039A0000EA8FFF7DDFCDDE90F010E9A039100215F
:1039B000009207F1010A04914DE04FF0004000979A
:1039C000CDE9011006A90EA8FFF7CAFCDDE90F0238
:1039D00003920E9B11990022DDF80CA00093049233
:1039E00011B9791C00EB010AB7EB0A0004D4C0F14D
:1039F000FF3007F1010A0490AAEB0700019044E0B0
:103A0000012F00DA01270021112F01DD112000E034
:103A10003846CDE9000106A90EA8FFF7A1FCDDE9B3
:103A20000F010E9A0391002104910092BA462107DA
:103A30000CD40399514500DA8A46BAF1010F05DD2D
:103A4000009AAAF10101515C302908D0B84202DA8B
:103A500010F1040F06DA0121CDE9011015E0AAF1F9
:103A60000101E9E7002805DC049901440491AAEB6F
:103A7000000102E0411C514500DD8A460499401ACC
:103A8000401C01904FF000400290200704D40198A0
:103A9000504501DBCDF8048000208DF84F000298DE
:103AA0000DF14F07B0F1004F25D02B200E9002985A
:103AB0004FF0020800280CDA404202902D200E90B0
:103AC00007E00A210298FFF713FB3031029007F854
:103AD000011DB8F10001A8F10108F2DC02980028EC
:103AE000EFD1791E0E980870307800F0200040F079
:103AF000450007F8020D12A8C01B00F10708149832
:103B0000007800B1012000EB0A01019801EBE0719F
:103B100005984144401A401E0590E00306D45B46D8
:103B20002146179A059800F05DF80544149800782E
:103B300018B15A46179990476D1CE00324D55B468F
:103B40002146179A059800F04DF805441CE00498AA
:103B5000002807DBDDE90301884203DD0098405CB3
:103B6000179901E0179930205A469047049805F1BB
:103B70000105401C04900198401E019004D12E20A4
:103B80005A46179990476D1CBAF10001AAF1010A33
:103B9000DDDC05E017F8010B5A46179990476D1CBC
:103BA000B8F10001A8F10108F4DC5B462146179A40
:103BB0000598ABE62D0000002B000000200000005F
:103BC0002DE9F041044600251E461746880404D41A
:103BD00005E039462020B0476D1C641EF9D5284603
:103BE000BDE8F0812DE9F041044600251E469046CF
:103BF000C80301D5302700E02027880404D505E05C
:103C000041463846B0476D1C641EF9D52846BDE8CC
:103C1000F0810000343C0008000000209C000000FF
:103C200040330008D03C00089C000020FC960000B7
:103C30005033000800A24A04000000000000000009
:103C40000102030406070809020406080000000038
:103C50000102030401020304060708090000000032
:103C60000000000000000000000000000000000054
:103C70000000000000000000000000000000000044
:103C80000000000000000000000000000000000034
:103C90000000000000000000000000000000000024
:103CA0000000000000000000000000000000000014
:103CB0000000000000000000000000000000000004
:103CC00000000000AAAAAAAA00000000000000004C
:0400000508000131BD
:00000001FF
